:100000007DEF01F00000000000EF00F000000000B4
:0A0010000000000000000000F3D71C
:10001C000F0E0C6E470E0D6E0D2EFED70C2EFCD750
:06002C00000000001200BC
:0A003200210E0D6E0D2EFED71200F8
:06003C00000000001200AC
:1000420000016BBF02D0839E01D0838E6BBD02D0B4
:10005200839C01D0838C6BBB02D0839A01D0838AAC
:100062006BB902D0839801D0838860B102D08384B7
:1000720001D083948386E1DF83966BB702D0839E9F
:1000820001D0838E6BB502D0839C01D0838C6BB37D
:1000920002D0839A01D0838A6BB102D0839801D0B7
:1000A200838860B102D0838401D083948386C5DFC4
:0E00B200839660A102D0B1DF01D0BADF120048
:0C00C000060E0D6E0D2EFED70000120083
:0E00CC000001609166C06BF0B6DF608112002B
:1000DA000001666B686B696B100E6A6F040E695DCE
:1000EA0029E2F00E816E120E006E000E016E810E74
:1000FA000024E16E0F0E0120E26E6A1D006E00C040
:10010A00E6FF97DF96DF0F0E8114006E00C067F0DE
:10011A0000520AE068C066F0675304E06733679FDD
:10012A00662BFAD7040E696F6A376A91040E68273C
:0A013A00692BD4D766C000F0120054
:10014400959695949598959A959C959E8396839467
:10015400839E839C839A83985FDF5EDF5DDF838A5F
:100164008388838669DF839657DF838665DF83967A
:1001740053DF838661DF83964FDF839883865CDF5A
:1001840083964ADF838658DF8396839A838E838699
:1001940053DF839641DF839E838883864DDF839676
:1001A4008398838649DF839637DF838645DF83968A
:1001B4008388838641DF83962FDF839883863CDFA1
:1001C4008396838E838C838A8388838635DF8396A4
:0801D40023DF0001608112002D
:1001DC000900F5CFE6FF0006FBE10106F9E112008C
:1001EC00120E006E000E016E810E0024E16E0F0ED9
:0A01FC000120E26EFF0EE66E120015
:1002060010D0800E0001616F1AD0C00E616F17D03A
:10021600940E616F14D0D40E616F11D0800E616F91
:100226000ED000016151010AECE06151020AEDE0D5
:100236006151030AEDE06151040AEDE0EFD7620572
:10024600006E6151002600C061F0608100C06BF055
:0E025600F5DE609163C06BF0F1DE6081120096
:100264003ADF00C061F00F0E8114006E02E026DF59
:08027400FAD761C000F012008E
:10027C0010D0800E0001616F1AD0C00E616F17D0C4
:10028C00940E616F14D0D40E616F11D0800E616F1B
:10029C000ED000016151010AECE06151020AEDE05F
:1002AC006151030AEDE06151040AEDE0EFD76205FC
:1002BC00006E6151002600C061F000C06BF0BBDE27
:1002CC006091656B65516325E96E000E6421EA6EE1
:1002DC00EE520BE065516325E96E000E6421EA6E67
:0E02EC00EECF66F0EDDE652BEDD760811200DF
:1002FA00A5EC02F076DF9480949294948290829294
:10030A0082941BDF010E6B6F97DE0C0E6B6F94DE0F
:10031A0082A0EFD05F6A010E6B6F8EDE010E616FF5
:10032A00030E626F2E0E636F000E646FA2DF800EE3
:10033A00006E800E3C18005C02E13B50000803E2AC
:10034A008294828208D0000E3C1802E1000E3B180B
:10035A0002E182928284020E616F030E626F150EB1
:10036A003B24E96E000E3C20EA6EEECF63F046DFD6
:10037A0074DF00C05FF0005203E182A001D0F8D719
:10038A005F50040A3FE182A03DD0800E006E800ECD
:10039A003C18005C02E13B5000081CE2010E3B5E87
:1003AA00000E3C5A020E616F010E626F220E636FDD
:1003BA00000E646F5EDF040E0B6E0C0E0C6E330EB5
:1003CA000D6E0D2EFED70C2EFCD70B2EFAD7000081
:1003DA00000017D0020E616F010E626F280E636F64
:1003EA00000E646F46DF040E0B6E0C0E0C6E330E9D
:1003FA000D6E0D2EFED70C2EFCD70B2EFAD7000051
:10040A00000076D05F50020A3DE182A03BD0800E08
:10041A003C18006E800E005C02E10C0E3B5C1AE296
:10042A003B4A3C2A020E616F010E626F3D0E636FFA
:10043A00000E646F1EDF040E0B6E0C0E0C6E330E74
:10044A000D6E0D2EFED70C2EFCD70B2EFAD7000000
:10045A00000017D0020E616F010E626F590E636FB2
:10046A00000E646F06DF040E0B6E0C0E0C6E330E5C
:10047A000D6E0D2EFED70C2EFCD70B2EFAD70000D0
:10048A00000036D082B01AD0020E616F010E626F80
:10049A00430E636F000E646FECDE040E0B6E0C0EDF
:1004AA000C6E330E0D6E0D2EFED70C2EFCD70B2EB6
:1004BA00FAD700000000829282941AD0010E6B6F64
:1004CA00BBDD020E616F010E626F4B0E636F000E91
:1004DA00646FCFDE040E0B6E0C0E0C6E330E0D6EB7
:1004EA000D2EFED70C2EFCD70B2EFAD700000000DB
:0604FA000FD70ED7FFD75B
:10054A0010EE15F04A0E006E010E016E000EF66EE8
:0E055A00050EF76E000EF86EEEEC00F01200CB
:0D050000303132333435363738394142431B
:06050D00457869746F00DF
:060513004C6C656E6F00E8
:0D0519004573746163696F6E61646F7300F8
:020526000C00C7
:06052800457869746F00C4
:08052E004365727261646F0005
:0E0536004572726F7220456E747261646100CE
:06054400566163696F00BF
:020000040030CA
:0E0000000008181EFF8081FF0FC00FE00F40A8
:00000001FF
