:1000000092EF03F00000000000EF00F0000000009D
:0A0010000000000000000000F3D71C
:06001C00000000001200CC
:0A002200210E0D6E0D2EFED7120008
:10002C000F0E0C6E470E0D6E0D2EFED70C2EFCD740
:06003C00000000001200AC
:100042000B840BAE2CEF00F0010E036E026A016A04
:0A005200006A0A360232FF0E1200A7
:08005C000AAE029E000E120024
:1000640040BE02D0839E01D0838E40BC02D0839CCC
:1000740001D0838C40BA02D0839A01D0838A40B8DD
:1000840002D0839801D0838827B002D0838401D022
:1000940083948386C1DF839640B602D0839E01D0C9
:1000A400838E40B402D0839C01D0838C40B202D0B2
:1000B400839A01D0838A40B002D0839801D0838888
:1000C40027B002D0838401D083948386A5DF8396EE
:0C00D40027A002D0A9DF01D0A2DF12009B
:0E00E000026A016A006A086A036A000E1200D2
:1000EE00086A096A100E0C6E01340836093604507F
:1000FE00085E0550D8A0053C095ED8B007D0045064
:10010E0008260550D8B0053C0926D8900036013691
:06011E000C2EEAD71200CE
:100124000B800BAE9EEF00F0026A0AAEFF0E026E69
:0C013400016E006E0A360232FF0E12004F
:100140000C6A0E6A0250D8A4B9EF00F001C002F0A8
:1001500000C001F0006A0E860250D8A4B9EF00F08A
:1001600001C002F0016A0E960E880250D8B4CBEF9F
:1001700000F00E50035ED8A4D8A0D0EF00F0D890C5
:1001800002BED5EF00F0003601360236032EC0EF76
:1001900000F0D0EF00F0010E0C6EA2DFD8EF00F0FF
:1001A000020E0C6E4EDFD8EF00F0040E0C6E56DF20
:0201B00012003B
:1001B2000B820BAEE3EF00F003680268016800688F
:0801C2000A360232FF0E1200A2
:0C01CA00279039C040F049DF2780120068
:0C01D6000E0E0D6E0D2EFED70000120064
:1001E2003D6A050E3D5C0AE23D503B24E16E000E85
:1001F2003C20E26E200EE66E3D2AF3D73D503B24B2
:10020200E16E000E3C20E26EE66A3D063D503B2464
:100212003E6E000E3C203F6E0A0E046E000E056E0E
:1002220039C000F03AC001F061DF08C000F009C037
:1002320001F0300E00263EC0E1FF3FC0E2FF00C0E9
:10024200E6FF0A0E046E000E056E39C000F03AC0D9
:1002520001F04CDF00C039F001C03AF0000E011885
:1002620002E1000E001801E102D03D06CFD71200D4
:100272000900F5CFE6FF0006FBE10106F9E11200F5
:100282000FD0800E2F6E19D0C00E2F6E16D0940E86
:100292002F6E13D0D40E2F6E10D0800E2F6E0DD075
:1002A2002F50010AEEE02F50020AEEE02F50030A0F
:1002B200EEE02F50040AEEE0F0D73004006E2F502B
:1002C200002600C02FF000C040F0CBDE2790336A3A
:1002D20033503124E96E000E3220EA6EEE520BE00A
:1002E20033503124E96E000E3220EA6EEECF39F03F
:0A02F2006BDF332AEDD727801200DE
:1002FC00959695949598959A959C959E83968394AE
:10030C00839E839C839A83988BDE8ADE89DE838A24
:10031C00838883867DDE839683DE838679DE83966F
:10032C007FDE838675DE83967BDE8398838670DE24
:10033C00839676DE83866CDE8396839A838E8386A1
:10034C0067DE83966DDE839E8388838661DE83966B
:10035C00839883865DDE839663DE838659DE83967F
:10036C008388838655DE83965BDE8398838650DE96
:10037C008396838E838C838A8388838649DE8396D7
:06038C004FDE2780120085
:100392000B6A0C6A0A6A0350D8B413EF02F0028E99
:1003A2008E0E035E03BEDBEF01F0D8B4DBEF01F08B
:1003B20017EF02F0036C080E035CD8A0F2EF01F015
:1003C200036E013602C001F0026A080E035CD8A077
:1003D200F2EF01F00136016A0350D8A4D890FCEF85
:1003E20001F00350D8B4FCEF01F0D8900232013290
:1003F200032EF6EF01F00BBC01A009EF02F0D8A02A
:1004020009EF02F0012AD8B4022A02BE26EF02F056
:100412000AAE2BEF02F0021E011E012AD8B4022AF4
:100422002BEF02F0026A016A2BEF02F00B800BAE97
:100432002FEF02F0026A0AAE2FEF02F0FF0E026EF9
:10044200016E0A3602322FEF02F0010E0C6E69DEE7
:1004520031EF02F0000E0C6E31EF02F0FF0E0C6E67
:0A0462000150006E0250016E1200FE
:10046C00356A366A2FC037F030C038F0800E30183D
:10047C00006E800E005C02E1000E2F5C0BE2010EA0
:10048C00356E000E366E2F500008376E30C038F0C7
:10049C00000E385637C039F038C03AF031C03BF056
:1004AC0032C03CF098DE060E336E000E346E000E39
:1004BC00006E3450005C02E13350000819E23350F6
:1004CC003124E16E34503220E26E010E335C006E4A
:1004DC00000E3458016E00503124E96E0150322068
:1004EC00EA6EEECFE6FF010E335E000E345ADFD714
:1004FC0031C0E1FF32C0E2FF200EE66E35503610FF
:10050C001AE0336A346A33503124E96E34503220A5
:10051C00EA6EEE50200A03E1334A342AF4D7010E76
:10052C00335E000E345A33503124E16E3450322095
:08053C00E26E2D0EE66E1200C6
:100544000FD0800E2F6E19D0C00E2F6E16D0940EC1
:100554002F6E13D0D40E2F6E10D0800E2F6E0DD0B0
:100564002F50010AEEE02F50020AEEE02F50030A4A
:10057400EEE02F50040AEEE0F0D73004006E2F5066
:10058400002600C02FF0278000C040F069DD2790CE
:0A05940031C040F065DD2780120041
:10059E00C26A261C006E0050C116070EC012C08E15
:1005AE002FC000F000360090003600900050C212AE
:1005BE00C2800ADEC282C2A201D0FDD7C4CF01F032
:0E05CE00006AC3500012000E0112C29012000B
:1005DC000050086E0150006E016A026A036A0B6AD1
:1005EC000C6A960E036E0A6A00C001F008C000F097
:0805FC00086A026A9FDD12008B
:10060400086A096A000E0762036487EF03F0025068
:1006140006180A6E075003267E0ED8A018EF03F0C2
:10062400035ED8B08BEF03F01CEF03F0035ED8A099
:100634008FEF03F0028E068E02C00EF001C00BF0A5
:1006440000C00DF000500402F4CF0CF0015005027C
:10065400F4CF00F0F3CF08F00402F3500C26F4506A
:100664000822000E00220D500502F3500C26F4500F
:100674000822000E002202500402F3500826F4500F
:10068400002202500502016A000E0122F3500026E6
:10069400F45001220D500602F3500826F4500022B3
:1006A400026A000E012202220B500602F3500026B9
:1006B400F4500122000E02220E500602F3500126CD
:1006C400F450022202BE6FEF03F008360036013602
:1006D40002360306D8B48FEF03F082EF03F0D8801C
:1006E400800E08640030000E002201220222D8A0ED
:1006F40082EF03F0023201320032034A8BEF03F03F
:100704000AAE029E000E91EF03F0010EE7DC91EFBA
:1007140003F0020E4CDD91EF03F0040E90DC1200A6
:10072400F3EC03F0010E926E070EB46EE5DD010EDC
:10073400406E96DC0C0E406E93DC010E2F6E010EA3
:10074400306E190E316E000E326E99DD2F6A25DF80
:1007540000C017F001C018F03FDFE30E046E360E40
:10076400056E7A0E066E7D0E076E4ADF10DE00C03F
:1007740015F001C016F000C02FF001C030F0280EB3
:10078400316E000E326E70DE020E2F6E060E306E6B
:10079400280E316E000E326E72DD020E2F6E0E0EBA
:1007A400306E430E316ECCDE020E2F6E0D0E306EA7
:1007B400DF0E316EC5DE000E165C02E1190E155C0B
:1007C40003E38082809402D080928084BFD7FFD7D5
:1007E60010EE15F0120E006E010E016ED40EF66EAE
:0E07F600070EF76E000EF86E39EC01F01200DF
:0207D400000023
:0207D600000021
:0D07D80054656D70657261747572613A0050
:0107E50030E3
:020000040030CA
:0E0000000008181EFF8081FF0FC00FE00F40A8
:00000001FF
