:10000000A0EF01F00000000000EF00F00000000091
:0A0010000000000000000000F3D71C
:0A001C00210E0D6E0D2EFED712000E
:100026000F0E0C6E470E0D6E0D2EFED70C2EFCD746
:06003600000000001200B2
:06003C00000000001200AC
:10004200000192BF02D0839E01D0838E92BD02D066
:10005200839C01D0838C92BB02D0839A01D0838A85
:1000620092B902D0839801D0838886B102D083846A
:1000720001D083948386E1DF839692B702D0839E78
:1000820001D0838E92B502D0839C01D0838C92B32F
:1000920002D0839A01D0838A92B102D0839801D090
:1000A200838886B102D0838401D083948386C5DF9E
:0E00B200839686A102D0B6DF01D0AFDF120028
:1000C00000018D6B8F6B906B100E916F040E905D25
:1000D00029E2F00E816E120E006E000E016E810E8E
:1000E0000024E16E0F0E0120E26E911D006E00C033
:1000F000E6FFA4DFA3DF0F0E8114006E00C08EF0B8
:1001000000520AE08FC08DF08E5304E08E338E9F34
:100110008D2BFAD7040E906F91379191040E8F2793
:0A012000902BD4D78DC000F0120020
:10012A0010D0800E00018D6F1AD0C00E8D6F17D0BF
:10013A00940E8D6F14D0D40E8D6F11D0800E8D6FEA
:10014A000ED000018D51010AECE08D51020AEDE05A
:10015A008D51030AEDE08D51040AEDE0EFD78E05CB
:10016A00006E8D51002600C08DF0868100C092F08D
:0E017A0063DF86918FC092F05FDF86811200F6
:0E018800000186918DC092F058DF8681120032
:0C019600060E0D6E0D2EFED700001200AC
:1001A200959695949598959A959C959E8396839409
:1001B200839E839C839A839835DF34DF33DF838A7F
:1001C200838883863ADF83962DDF838636DF8396A4
:1001D20029DF838632DF839625DF839883862DDFAE
:1001E200839620DF838629DF8396839A838E838694
:1001F20024DF839617DF839E838883861EDF8396A0
:10020200839883861ADF83960DDF838616DF8396B3
:100212008388838612DF839605DF839883860DDFCA
:100222008396838E838C838A8388838606DF839674
:08023200F9DE000186811200D3
:10023A000900F5CFE6FF0006FBE10106F9E112002D
:10024A00120E006E000E016E810E0024E16E0F0E7A
:0A025A000120E26EFF0EE66E1200B6
:10026400400E0001926FEBDE8A6B8A51070811E39E
:10027400530E8A25F66E060EF76E000EF722000E58
:10028400F86E000EF8220900F5CF8DF07BDF8A2B83
:10029400ECD7020E926FD3DE88C08DF089C08EF049
:0602A4008F6B41DF120028
:1002AA0010D0800E0001886F1AD0C00E886F17D048
:1002BA00940E886F14D0D40E886F11D0800E886F78
:1002CA000ED000018851010AECE08851020AEDE0E3
:1002DA008851030AEDE08851040AEDE0EFD7890559
:1002EA00006E8851002600C088F000C092F0A4DE9B
:1002FA0086918C6B8C518A25E96E000E8B21EA6EF1
:10030A00EE520BE08C518A25E96E000E8B21EA6EC3
:0E031A00EECF8DF034DF8C2BEDD786811200F4
:10032800CBDE00C088F00F0E8114006E02E02FDFD4
:08033800FAD788C000F01200A2
:100340002EEC03F0070EB46E0F0EC16E030E926E0C
:10035000806A9490829079DF24DF010E926F71DEC3
:100360000C0E926F6EDE876B010E926F6ADE80B0AC
:1003700036D180B234D1010E926F63DED5DF00C07A
:1003800087F00052FBE08751040AD8A4D4D080B093
:10039000D2D080B2D0D0010E926F53DE010E886FA2
:1003A000010E896F4B0E8A6F000E8B6F7EDF80B05F
:1003B00012D080B210D08270060E0B6E130E0C6E2F
:1003C000AD0E0D6E0D2EFED70C2EFCD70B2EFAD7D0
:1003D00000000000ECD78290000E1D1802E1000E14
:1003E0001C18D8A482D0010E926F2BDE010E886FEC
:1003F000010E896F150E8A6F000E8B6F56DF020E8D
:10040000886F010E896F2EDF020E886F050E896FCF
:100410001E0E8A6F000E8B6F48DF876B85DF00C072
:1004200087F00052FBE08751020A3BE1020E886F21
:10043000050E896F290E8A6F000E8B6F36DF876B72
:1004400073DF00C087F00052FBE08751020A05E12C
:10045000010E1C6E000E1D6E23D0010E926FF1DD99
:10046000010E886F010E896F200E8A6F000E8B6F50
:100470001CDF020E886F010E896F780E8A6F000EE6
:100480008B6F13DF060E0B6E130E0C6EAD0E0D6E22
:100490000D2EFED70C2EFCD70B2EFAD70000000035
:1004A00023D0010E926FCDDD010E886F010E896F92
:1004B000200E8A6F000E8B6FF8DE020E886F010E21
:1004C000896F780E8A6F000E8B6FEFDE060E0B6E53
:1004D000130E0C6EAD0E0D6E0D2EFED70C2EFCD72E
:1004E0000B2EFAD70000000077D7010E926FA9DD1E
:1004F000010E886F010E896F150E8A6F000E8B6FCB
:10050000D4DE020E886F010E896F6C0E8A6F000EAA
:100510008B6FCBDE1F0E0B6E710E0C6E1E0E0D6EF2
:100520000D2EFED70C2EFCD70B2EFAD70000010E95
:10053000926F87DD53D08751040A2BE180B003D03E
:1005400080B201D026D0010E926F7BDD010E886F44
:10055000010E896F5B0E8A6F000E8B6FA6DE020E96
:10056000886F010E896F3C0E8A6F000E8B6F9DDEC7
:100570001F0E0B6E710E0C6E1E0E0D6E0D2EFED725
:100580000C2EFCD70B2EFAD70000010E926F59DD0E
:1005900025D0010E926F55DD010E886F010E896F17
:1005A0005B0E8A6F000E8B6F80DE020E886F010E6D
:1005B000896F2B0E8A6F000E8B6F77DE1F0E0B6E0E
:1005C000710E0C6E1E0E0D6E0D2EFED70C2EFCD76E
:1005D0000B2EFAD70000010E926F33DDC8D6C3D6BA
:0205E000FFD743
:10065C0010EE15F0710E006E010E016EE20EF66ECC
:0E066C00050EF76E000EF86E1DEC01F0120088
:0705E200416C6572746100B9
:0205E900000010
:0205EB003200DC
:0905ED004572726F722064650012
:0205F6003100D2
:1005F800436F6469676F20496E636F7272656374D5
:0106080000F1
:0F06090050756572746120416269657274610099
:10061800416C61726D612041637469766164610047
:100628004572726F722041637469766163696F6E97
:0106380000C1
:0C0639004465736163746976616461005C
:0E06450044657361637469766163696F6E006A
:080653000A11040E0E1F1F0422
:020000040030CA
:0E0000000008181EFF8081FF0FC00FE00F40A8
:00000001FF
