:100000009EEF01F00000000000EF00F00000000093
:0A0010000000000000000000F3D71C
:0A001C00210E0D6E0D2EFED712000E
:100026000F0E0C6E470E0D6E0D2EFED70C2EFCD746
:06003600000000001200B2
:06003C00000000001200AC
:10004200000169BF02D0839E01D0838E69BD02D0B8
:10005200839C01D0838C69BB02D0839A01D0838AAE
:1000620069B902D0839801D083885EB002D08384BC
:1000720001D083948386E1DF839669B702D0839EA1
:1000820001D0838E69B502D0839C01D0838C69B381
:1000920002D0839A01D0838A69B102D0839801D0B9
:1000A20083885EB002D0838401D083948386C5DFC7
:0E00B20083965EA002D0B6DF01D0AFDF120051
:1000C0000001606B666B676B100E686F040E675DF6
:1000D00029E2F00E816E120E006E000E016E810E8E
:1000E0000024E16E0F0E0120E26E681D006E00C05C
:1000F000E6FFA4DFA3DF0F0E8114006E00C065F0E1
:1001000000520AE066C060F0655304E06533659F05
:10011000602BFAD7040E676F68376891040E662764
:0A012000672BD4D760C000F0120076
:10012A0010D0800E0001656F1AD0C00E656F17D00F
:10013A00940E656F14D0D40E656F11D0800E656F62
:10014A000ED000016551010AECE06551020AEDE0AA
:10015A006551030AEDE06551040AEDE0EFD7660543
:10016A00006E6551002600C065F05E8000C069F02F
:0E017A0063DF5E9067C069F05FDF5E80120099
:0C0188005E9060C069F059DF5E801200DC
:0C019400060E0D6E0D2EFED700001200AE
:1001A000959695949598959A959C959E839683940B
:1001B000839E839C839A839836DF35DF34DF838A7E
:1001C000838883863BDF83962EDF838637DF8396A3
:1001D0002ADF838633DF839626DF839883862EDFAC
:1001E000839621DF83862ADF8396839A838E838694
:1001F00025DF839618DF839E838883861FDF83969F
:10020000839883861BDF83960EDF838617DF8396B2
:100210008388838613DF839606DF839883860EDFC9
:100220008396838E838C838A8388838607DF839675
:06023000FADE5E80120000
:100236000900F5CFE6FF0006FBE10106F9E1120031
:10024600120E006E000E016E810E0024E16E0F0E7E
:0A0256000120E26EFF0EE66E1200BA
:10026000400E0001696FEDDE5F6A5F50070811E321
:10027000F40E5F24F66E040EF76E000EF722000EE9
:10028000F86E000EF8220900F5CF60F07DDF5F2ADE
:10029000ECD7020E696FD5DE61C065F062C066F012
:0602A000676B43DF120052
:1002A60010D0800E0001616F1AD0C00E616F17D09A
:1002B600940E616F14D0D40E616F11D0800E616FF1
:1002C6000ED000016151010AECE06151020AEDE035
:1002D6006151030AEDE06151040AEDE0EFD76205D2
:1002E600006E6151002600C061F000C069F0A6DE14
:1002F6005E905F6A5F506325E96E000E6421EA6EC8
:10030600EE520BE05F506325E96E000E6421EA6E43
:0E031600EECF60F036DF5F2AEDD75E8012007A
:10032400CDDE00C05FF00F0E8114006E02E030DFFE
:08033400FAD75FC000F01200CF
:10033C007EEC02F0070EB46E0F0EC16E030E926EC1
:10034C00806A9490829079DF25DF010E0001696F3D
:10035C0072DE0C0E696F6FDE5D6A80B09FD080B26A
:10036C009DD0010E696F67DED7DF00C05DF00052D3
:10037C00FBE05D50040A44E180B042D080B240D032
:10038C00010E696F58DE010E616F010E626F2D0E4A
:10039C00636F000E646F81DF80B012D080B210D01A
:1003AC008270060E0B6E130E0C6EAD0E0D6E0D2EB6
:1003BC00FED70C2EFCD70B2EFAD700000000ECD782
:1003CC00010E696F38DE010E616F010E626F150E42
:1003DC00636F000E646F61DF020E616F010E626F5E
:1003EC0039DF82901F0E0B6E710E0C6E1E0E0D6E91
:1003FC000D2EFED70C2EFCD70B2EFAD700004DD0AD
:10040C005D50040A28E180B003D080B201D023D023
:10041C00010E696F10DE010E616F010E626F1C0E12
:10042C00636F000E646F39DF020E616F010E626F35
:10043C003D0E636F000E646F30DF1F0E0B6E710E7E
:10044C000C6E1E0E0D6E0D2EFED70C2EFCD70B2E29
:10045C00FAD7000022D0010E696FEDDD010E616F3D
:10046C00010E626F1C0E636F000E646F16DF020EBE
:10047C00616F010E626F4C0E636F000E646F0DDFC7
:10048C001F0E0B6E710E0C6E1E0E0D6E0D2EFED70A
:10049C000C2EFCD70B2EFAD700005FD75DD7FFD7F9
:1004FC0010EE15F0480E006E010E016EAC0EF66E8D
:0E050C00040EF76E000EF86E1BEC01F01200EC
:0704AC00416C6572746100F0
:1004B3004572726F722041637469766163696F6E0E
:0104C3000038
:1004C400416C61726D61204163746976616461009D
:0F04D400507565727461204162696572746100D0
:1004E300436F6469676F20496E636F7272656374EB
:0104F3000008
:0804F4000A11040E0E1F1F0483
:020000040030CA
:0E0000000008181EFF8081FF0FC00FE00F40A8
:00000001FF
