:1000000058EF00F00000000000EF00F000000000DA
:0A0010000000000000000000F3D71C
:10001C00020E0C6E490E0D6E0D2EFED70C2EFCD75B
:06002C00000000001200BC
:100032000900F5CFE6FF0006FBE10106F9E1120037
:100042001B6A17C001F0010E006E015004E0003679
:100052000090FF0FFBD700C01AF015C0E9FF16C0D1
:10006200EAFF0050EE14016E0152010ED8A4000EF8
:10007200006E1950001A18E01850000804E2CDDF93
:10008200CCDF1806F9D715C0E9FF16C0EAFF1A50EF
:10009200EE14016E0152010ED8A4000E006E19502A
:0E00A200001A02E0FF0E1B6E1BC000F01200E1
:1000B000010E926E070EB46E0F0EC16E800E156E9D
:1000C0000F0E166E176A640E186E010E196EB9DFE8
:0A00D0000052D8A48072F2D7FFD7C7
:020000040030CA
:0E0000000008181EFF8081FF0FC00FE00F40A8
:00000001FF
