:1000000068EF01F00000000000EF00F000000000C9
:0A0010000000000000000000F3D71C
:0A001C00210E0D6E0D2EFED712000E
:100026000F0E0C6E470E0D6E0D2EFED70C2EFCD746
:06003600000000001200B2
:06003C00000000001200AC
:1000420056BE02D0839E01D0838E56BC02D0839CC2
:1000520001D0838C56BA02D0839A01D0838A56B8D3
:1000620002D0839801D083884BB002D0838401D020
:1000720083948386E2DF839656B602D0839E01D0B4
:10008200838E56B402D0839C01D0838C56B202D0A8
:10009200839A01D0838A56B002D0839801D0838894
:1000A2004BB002D0838401D083948386C6DF8396CB
:0C00B2004BA002D0B7DF01D0B0DF12007D
:0C00BE00060E0D6E0D2EFED70000120085
:1000CA00516A536A546A100E556E040E545C29E242
:1000DA00F00E816E120E006E000E016E810E00246B
:1000EA00E16E0F0E0120E26E551C006E00C0E6FFA5
:1000FA00A0DF9FDF0F0E8114006E00C052F0005285
:10010A000AE053C051F0525204E05232529E512A30
:10011A00FAD7040E546E55365590040E5326542AB7
:08012A00D4D751C000F012000F
:0C0132004B9051C056F084DF4B8012004F
:10013E00959695949598959A959C959E839683946D
:10014E00839E839C839A839867DF66DF65DF838A4D
:10015E00838883866CDF83965FDF838668DF839672
:10016E005BDF838664DF839657DF839883865FDF4A
:10017E00839652DF83865BDF8396839A838E838694
:10018E0056DF839649DF839E8388838650DF83966E
:10019E00839883864CDF83963FDF838648DF839682
:1001AE008388838644DF839637DF839883863FDF99
:1001BE008396838E838C838A8388838638DF8396A7
:0601CE002BDF4B80120044
:1001D4000900F5CFE6FF0006FBE10106F9E1120094
:1001E4000FD0800E4C6E19D0C00E4C6E16D0940EEB
:1001F4004C6E13D0D40E4C6E10D0800E4C6E0DD0BD
:100204004C50010AEEE04C50020AEEE04C50030A56
:10021400EEE04C50040AEEE0F0D74D04006E4C5072
:10022400002600C04CF000C056F009DF4B90506A25
:1002340050504E24E96E000E4F20EA6EEE520BE051
:1002440050504E24E96E000E4F20EA6EEECF51F06E
:0A0254006EDF502AEDD74B80120038
:10025E000FD0800E4C6E19D0C00E4C6E16D0940E70
:10026E004C6E13D0D40E4C6E10D0800E4C6E0DD042
:10027E004C50010AEEE04C50020AEEE04C50030ADC
:10028E00EEE04C50040AEEE0F0D74D04006E4C50F8
:10029E00002600C04CF04B8000C056F0CBDE4B90D9
:0A02AE004EC056F0C7DE4B80120070
:1002B80008DF00C04CF00F0E8114006E02E0FBDE78
:0802C800FAD74CC000F012004F
:1002D0003AEC02F094809492949431DF0C0E566EB6
:1002E000B0DE010E566EADDE82B0A7D0010E4C6EB0
:1002F000010E4D6E270E4E6E000E4F6E73DF316A8B
:10030000326A4A6AD9DF00C04AF0005203E182B083
:1003100001D0F8D74A50090A05E1010E316E000EEE
:10032000326E23D0020E4C6E020E4D6E150E4E6EC6
:10033000000E4F6E57DF040E0B6E0C0E0C6E330E5C
:100340000D6E0D2EFED70C2EFCD70B2EFAD700000B
:100350000000010E566E75DE010E4C6E010E4D6EE4
:100360001B0E4E6E000E4F6E3DDF000E321802E186
:10037000000E311803E182B001D0C4D782B05CD046
:10038000000E321802E1010E311856E18282256A10
:10039000266A800E2618006E800E005C02E10A0EAE
:1003A000255C2DE2000E261802E1090E25180AE14F
:1003B000020E4C6E020E4D6E330E4E6E000E4F6EE0
:1003C00011DF0DD0020E4C6E020E4D6E400E252434
:1003D000E96E000E2620EA6EEECF4EF040DF020EF0
:1003E0000B6E040E0C6EBA0E0D6E0D2EFED70C2E7B
:1003F000FCD70B2EFAD70000254A262ACAD78292AC
:100400008284040E0B6E0C0E0C6E330E0D6E0D2ED0
:10041000FED70C2EFCD70B2EFAD7000000008294DA
:10042000010E566E0EDE010E4C6E010E4D6E360E36
:0E0430004E6E000E4F6ED6DE57D753D7FFD755
:1004740010EE15F0350E006E010E016E3E0EF66E96
:0E048400040EF76E000EF86EEAEC00F01200A7
:06043E004572726F7200AE
:0A044400456E63656E6469646F0025
:02044E000000AC
:0A045000456E63656E6469646F0019
:02045A000000A0
:03045C003130003C
:0A045F00456E63656E6469646F000A
:0A0469003132333435363738394F5D
:020000040030CA
:0E00000000081A1EFF8081FF0FC00FE00F40A6
:00000001FF
