:1000000076EF01F00000000000EF00F000000000BB
:0A0010000000000000000000F3D71C
:10001C000F0E0C6E470E0D6E0D2EFED70C2EFCD750
:06002C00000000001200BC
:0A003200210E0D6E0D2EFED71200F8
:06003C00000000001200AC
:10004200000160BF02D0839E01D0838E60BD02D0CA
:10005200839C01D0838C60BB02D0839A01D0838AB7
:1000620060B902D0839801D0838855B002D08384CE
:1000720001D083948386E1DF839660B702D0839EAA
:1000820001D0838E60B502D0839C01D0838C60B393
:1000920002D0839A01D0838A60B102D0839801D0C2
:1000A200838855B002D0838401D083948386C5DFD0
:0E00B200839655A002D0B1DF01D0BADF120054
:0C00C000060E0D6E0D2EFED70000120083
:0C00CC0055905BC060F0B7DF558012005B
:1000D8005B6A5D6A5E6A100E5F6E040E5E5C29E202
:1000E800F00E816E120E006E000E016E810E00245D
:1000F800E16E0F0E0120E26E5F1C006E00C0E6FF8D
:1001080099DF98DF0F0E8114006E00C05CF000527A
:100118000AE05DC05BF05C5204E05C325C9E5B2AE6
:10012800FAD7040E5E6E5F365F90040E5D265E2A77
:08013800D4D75BC000F01200F7
:10014000959695949598959A959C959E839683946B
:10015000839E839C839A839861DF60DF5FDF838A5D
:10016000838883866BDF839659DF838667DF839678
:1001700055DF838663DF839651DF839883865EDF56
:1001800083964CDF83865ADF8396839A838E838699
:1001900055DF839643DF839E838883864FDF839674
:1001A000839883864BDF839639DF838647DF839688
:1001B0008388838643DF839631DF839883863EDF9F
:1001C0008396838E838C838A8388838637DF8396A6
:0601D00025DF558012003E
:1001D6000900F5CFE6FF0006FBE10106F9E1120092
:1001E600120E006E000E016E810E0024E16E0F0EDF
:0A01F6000120E26EFF0EE66E12001B
:100200006BDF00C056F00F0E8114006E02E058DF65
:08021000FAD756C000F01200FD
:100218000FD0800E566E19D0C00E566E16D0940EA2
:10022800566E13D0D40E566E10D0800E566E0DD06A
:100238005650010AEEE05650020AEEE05650030A04
:10024800EEE05650040AEEE0F0D75704006E565020
:10025800002600C056F0558000C060F0EEDE5590D4
:0A02680058C060F0EADE5580120075
:100272000FD0800E566E19D0C00E566E16D0940E48
:10028200566E13D0D40E566E10D0800E566E0DD010
:100292005650010AEEE05650020AEEE05650030AAA
:1002A200EEE05650040AEEE0F0D75704006E5650C6
:1002B200002600C056F000C060F0C2DE55905A6AB7
:1002C2005A505824E96E000E5920EA6EEE520BE0A5
:1002D2005A505824E96E000E5920EA6EEECF5BF0B8
:0A02E200F4DE5A2AEDD75580120011
:1002EC0053EC02F09480949294948292829475DFF1
:1002FC0021DF0C0E0001606F9EDE0001010E606FAD
:10030C009ADE82B0A8D0010E566E010E576E270EE3
:10031C00586E000E596EA7DF316A326A546A6ADF72
:10032C0000C054F0005203E182B001D0F8D7545011
:10033C00090A05E1010E316E000E326E23D0020E59
:10034C00566E020E576E150E586E000E596E8BDFE0
:10035C00040E0B6E0C0E0C6E330E0D6E0D2EFED7A6
:10036C000C2EFCD70B2EFAD700000000010E606F8C
:10037C0062DE010E566E010E576E1B0E586E000E8D
:10038C00596E71DF000E321802E1000E311803E1D4
:10039C0082B001D0C4D782B05DD0000E321802E119
:1003AC00010E311857E18282256A266A800E2618C2
:1003BC00006E800E005C02E10A0E255C2DE2000E40
:1003CC00261802E1090E25180AE1020E566E020EDD
:1003DC00576E330E586E000E596E45DF0DD0020E5F
:1003EC00566E020E576E4B0E2524E96E000E26201B
:1003FC00EA6EEECF58F00ADF020E0B6E040E0C6E96
:10040C00BA0E0D6E0D2EFED70C2EFCD70B2EFAD776
:10041C000000254A262ACAD782928284060E0B6EC9
:10042C00130E0C6EAD0E0D6E00010D2EFDD70C2EA5
:10043C00FBD70B2EF9D7000000008294010E606FE1
:10044C00FADD010E566E010E576E410E586E000EFF
:0A045C00596E09DF56D751D7FFD7BC
:1004A60010EE15F03F0E006E010E016E660EF66E32
:0E04B600040EF76E000EF86EEBEC00F0120074
:060466004572726F720086
:0A046C00456E63656E6469646F00FD
:02047600000084
:0A047800456E63656E6469646F00F1
:02048200000078
:0E0484003130202020202020202020202000A9
:0A049200456E63656E6469646F00D7
:09049C003132333435363738397A
:020000040030CA
:0E0000000008181EFF8081FF0FC00FE00F40A8
:00000001FF
