:020000040000FA
:100000009282806A896A956A836A8C6A0F0EC16ED1
:10001000070EB46ED70ED56E80B2FED7ABEC01F0F2
:1000200080A2FCD714EF00F0836AB2EC01F0B2ECCE
:1000300001F0B2EC01F0B2EC01F0B2EC01F080B2F0
:1000400006D0ABEC01F080A2FCD7A3EF01F0837CDB
:100050008370B2EC01F0B2EC01F0B2EC01F0B2EC62
:1000600001F0B2EC01F080B206D0ABEC01F080A25E
:10007000FCD7A3EF01F0837A8372B2EC01F0B2EC0B
:1000800001F0B2EC01F0B2EC01F0B2EC01F080B2A0
:1000900006D0ABEC01F080A2FCD7A3EF01F083788F
:1000A0008374B2EC01F0B2EC01F0B2EC01F0B2EC0E
:1000B00001F0B2EC01F080B206D0ABEC01F080A20E
:1000C000FCD7A3EF01F08376B2EC01F0B2EC01F0C3
:1000D000B2EC01F0B2EC01F0B2EC01F080B206D06B
:1000E000ABEC01F080A2FCD7A3EF01F08376B2EC79
:1000F00001F0B2EC01F0B2EC01F0B2EC01F0B2ECC4
:1001000001F080B206D0ABEC01F080A2FCD7A3EFE7
:1001100001F083788374B2EC01F0B2EC01F0B2EC40
:1001200001F0B2EC01F0B2EC01F080B206D0ABEC21
:1001300001F080A2FCD7A3EF01F0837A8372B2ECC6
:1001400001F0B2EC01F0B2EC01F0B2EC01F0B2EC73
:1001500001F080B206D0ABEC01F080A2FCD7A3EF97
:1001600001F0837C8370B2EC01F0B2EC01F0B2ECF0
:1001700001F0B2EC01F0B2EC01F080B255D7ABEC7B
:1001800001F080A2FCD7A3EF01F0837C837A83780F
:10019000B2EC01F0B2EC01F0B2EC01F0B2EC01F023
:1001A000B2EC01F080B206D0ABEC01F080A2FCD73B
:1001B000A3EF01F0837C837A8378B2EC01F0B2EC98
:1001C00001F0B2EC01F0B2EC01F0B2EC01F080B25F
:1001D00006D0ABEC01F080A2FCD7A3EF01F0837452
:1001E00083728370B2EC01F0B2EC01F0B2EC01F07A
:1001F000B2EC01F0B2EC01F080B206D0ABEC01F051
:1002000080A2FCD7A3EF01F0837483728370B2ECF9
:1002100001F0B2EC01F0B2EC01F0B2EC01F0B2ECA2
:1002200001F080B206D0ABEC01F080A2FCD7A3EFC6
:1002300001F08376B2EC01F0B2EC01F0B2EC01F027
:10024000B2EC01F0B2EC01F080B206D0ABEC01F000
:1002500080A2FCD7A3EF01F08376B2EC01F0B2EC00
:1002600001F0B2EC01F0B2EC01F0B2EC01F080B2BE
:1002700006D0ABEC01F080A2FCD7A3EF01F0837CA9
:10028000837A83788376837483728370B2EC01F00F
:10029000B2EC01F0B2EC01F0B2EC01F0B2EC01F022
:1002A00080B206D0ABEC01F080A2FCD7A3EF01F046
:1002B000837C837A83788376837483728370B2ECD1
:1002C00001F0B2EC01F0B2EC01F0B2EC01F0B2ECF2
:1002D00001F080B206D0ABEC01F080A2FCD7A3EF16
:1002E00001F0837C837A837883768374837283704E
:1002F000B2EC01F0B2EC01F0B2EC01F0B2EC01F0C2
:10030000B2EC01F080B206D0ABEC01F080A2FCD7D9
:10031000A3EF01F0837C837A83788376837483727E
:100320008370B2EC01F0B2EC01F0B2EC01F0B2EC8F
:1003300001F0B2EC01F080B228D7ABEC01F080A262
:10034000FCD7A3EF01F083908392839483968398E4
:10035000839A839C61D6D66AFB0ED66EF2A4FED732
:10036000F2941200D66A640ED66EF2A4FED7F2940E
:02037000120079
:02037200000089
:00000001FF
