:100000007DEF01F00000000000EF00F000000000B4
:0A0010000000000000000000F3D71C
:10001C000F0E0C6E470E0D6E0D2EFED70C2EFCD750
:06002C00000000001200BC
:0A003200210E0D6E0D2EFED71200F8
:06003C00000000001200AC
:10004200000188BF02D0839E01D0838E88BD02D07A
:10005200839C01D0838C88BB02D0839A01D0838A8F
:1000620088B902D0839801D083887CB102D083847E
:1000720001D083948386E1DF839688B702D0839E82
:1000820001D0838E88B502D0839C01D0838C88B343
:1000920002D0839A01D0838A88B102D0839801D09A
:1000A20083887CB102D0838401D083948386C5DFA8
:0E00B20083967CA102D0B1DF01D0BADF12002C
:0C00C000060E0D6E0D2EFED70000120083
:0E00CC0000017C9183C088F0B6DF7C811200B9
:1000DA000001836B856B866B100E876F040E865D3D
:1000EA0029E2F00E816E120E006E000E016E810E74
:1000FA000024E16E0F0E0120E26E871D006E00C023
:10010A00E6FF97DF96DF0F0E8114006E00C084F0C1
:10011A0000520AE085C083F0845304E08433849F4C
:10012A00832BFAD7040E866F87378791040E8527AB
:0A013A00862BD4D783C000F012001A
:10014400959695949598959A959C959E8396839467
:10015400839E839C839A83985FDF5EDF5DDF838A5F
:100164008388838669DF839657DF838665DF83967A
:1001740053DF838661DF83964FDF839883865CDF5A
:1001840083964ADF838658DF8396839A838E838699
:1001940053DF839641DF839E838883864DDF839676
:1001A4008398838649DF839637DF838645DF83968A
:1001B4008388838641DF83962FDF839883863CDFA1
:1001C4008396838E838C838A8388838635DF8396A4
:0801D40023DF00017C81120011
:1001DC000900F5CFE6FF0006FBE10106F9E112008C
:1001EC00120E006E000E016E810E0024E16E0F0ED9
:0A01FC000120E26EFF0EE66E120015
:1002060069DF00C07EF00F0E8114006E02E055DF3C
:08021600FAD77EC000F01200CF
:10021E0010D0800E00017E6F1AD0C00E7E6F17D0E8
:10022E00940E7E6F14D0D40E7E6F11D0800E7E6F22
:10023E000ED000017E51010AECE07E51020AEDE083
:10024E007E51030AEDE07E51040AEDE0EFD77F0503
:10025E00006E7E51002600C07EF07C8100C088F0CA
:0E026E00E9DE7C9180C088F0E5DE7C81120024
:10027C0010D0800E00017E6F1AD0C00E7E6F17D08A
:10028C00940E7E6F14D0D40E7E6F11D0800E7E6FC4
:10029C000ED000017E51010AECE07E51020AEDE025
:1002AC007E51030AEDE07E51040AEDE0EFD77F05A5
:1002BC00006E7E51002600C07EF000C088F0BBDED0
:1002CC007C91826B82518025E96E000E8121EA6E51
:1002DC00EE520BE082518025E96E000E8121EA6E10
:0E02EC00EECF83F0EDDE822BEDD77C81120089
:1002FA00DEEC02F000017B6B74DF1FDF010E886FFA
:10030A009BDE010E7E6F010E7F6F300E806F000E36
:10031A00816FAFDF020E7E6F010E7F6F3F0E806F1F
:10032A00000E816FA6DF7D6B69DF00C07DF0005291
:10033A00FBE030D0440E7D6F5DD0230E7D6F5AD026
:10034A00300E7D6F57D02A0E7D6F54D0430E7D6FCD
:10035A0051D0390E7D6F4ED0380E7D6F4BD0370E8F
:10036A007D6F48D0420E7D6F45D0360E7D6F42D0EC
:10037A00350E7D6F3FD0340E7D6F3CD0410E7D6FC0
:10038A0039D0330E7D6F36D0320E7D6F33D0310EB9
:10039A007D6F30D07D51010ACDE07D51020ACDE05A
:1003AA007D51030ACDE07D51040ACDE07D51050A55
:1003BA00CDE07D51060ACDE07D51070ACDE07D51A1
:1003CA00080ACDE07D51090ACDE07D510A0ACDE047
:1003DA007D510B0ACDE07D510C0ACDE07D510D0A0D
:1003EA00CDE07D510E0ACDE07D510F0ACDE07D5161
:1003FA00100ACDE0060E7B5D14E2750EE16E000E6A
:10040A00E26E7B51E126D8B0E22A7DC0E6FF020EF9
:10041A007E6F7B51030F7F6F7DC080F0FBDE7B2BED
:10042A0096D07B6B156A166A800E1618006E800EBF
:10043A00005C02E1060E155C23E2750E1524E96ED6
:10044A00000E1620EA6EEECF02F0170E1524D96EB2
:10045A00000E1620DA6EDECF01F0000E006E000EDE
:10046A0001BEFF0E001802E10150021806E02E6AD2
:10047A002F6A060E156E000E166E154A162AD4D766
:10048A00000E2F1802E1010E2E1823E1010E886FCB
:10049A00D3DD010E7E6F010E7F6F1D0E806F000E81
:1004AA00816FE7DE020E7E6F010E7F6F6D0E806F29
:1004BA00000E816FDEDECB0E0B6EEC0E0C6E840E20
:1004CA000D6E0D2EFED70C2EFCD70B2EFAD7000080
:1004DA003ED0000E2F1802E1000E2E1838E1010E50
:1004EA00886FAADD010E7E6F010E7F6F4D0E806F41
:1004FA00000E816FBEDE020E7E6F010E7F6F430E0D
:10050A00806F000E816FB5DE0B0E0B6E260E0C6E21
:10051A005D0E0D6E0D2EFED70C2EFCD70B2EFAD7C4
:10052A0000000000010E886F87DD010E7E6F010E4C
:10053A007F6F5D0E806F000E816F9BDE020E7E6FF5
:10054A00010E7F6F590E806F000E816F92DEEBD61F
:02055A00FFD7C9
:1005BC0010EE15F0600E006E010E016E5C0EF66E04
:0E05CC00050EF76E000EF86EEEEC00F0120059
:02055C0000009D
:06055E0032373230323961
:100564004C6F67696E2053756365737366756C6C45
:010574000086
:02057500010083
:0F05770020204C6F67696E2041636365737300CA
:040586002020200011
:0A058A0054727920416761696E0028
:0C0594004C6F67696E204572726F720038
:0405A00020202000F7
:1005A400496E736572742050617373776F7264005F
:0805B40057656C636F6D650073
:020000040030CA
:0E0000000008181EFF8081FF0FC00FE00F40A8
:00000001FF
