:020000040000FA
:040000005AEF00F0C3
:020004000000FA
:0400080029EF00F0EC
:08001800E8CF04F0D8CF05F099
:10002000E0CF06F0D6CF07F0F0A220EF00F0F0927C
:10003000290E836E86EC00F086EC00F0000E816ED7
:1000400004C0E8FF05C0D8FF06C0E0FF07C0D6FF28
:100050001000E8CF00F0D8CF02F0E0CF01F0D6CF0B
:1000600003F0F2A23DEF00F0F292818E86EC00F0F8
:1000700086EC00F0819E51EF00F0F0A051EF00F00F
:10008000F090818C86EC00F086EC00F0819C86EC90
:1000900000F086EC00F0818C86EC00F086EC00F03D
:1000A000819C00C0E8FF02C0D8FF01C0E0FF03C090
:1000B000D6FF1000956A836A8C6A070E936E816A78
:1000C0008A6AD70ED56ED08ED00EF26ED50EF16E36
:1000D000580EF06E0F0EC16E3F0E836E86EC00F070
:1000E00086EC00F00A0E836E86EC00F086EC00F0E1
:1000F0005D0E836E86EC00F086EC00F05B0E836E86
:1001000086EC00F086EC00F06CEF00F0D66A320E60
:0A011000D66EE86AD662FED7120030
:00000001FF
