:10000000AAEF01F00000000000EF00F00000000087
:0A0010000000000000000000F3D71C
:0A001C00210E0D6E0D2EFED712000E
:100026000F0E0C6E470E0D6E0D2EFED70C2EFCD746
:06003600000000001200B2
:06003C00000000001200AC
:1000420025BE02D0839E01D0838E25BC02D0839C24
:1000520001D0838C25BA02D0839A01D0838A25B835
:1000620002D0839801D083881BB002D0838401D050
:1000720083948386E2DF839625B602D0839E01D0E5
:10008200838E25B402D0839C01D0838C25B202D00A
:10009200839A01D0838A25B002D0839801D08388C5
:1000A2001BB002D0838401D083948386C6DF8396FB
:0C00B2001BA002D0B7DF01D0B0DF1200AD
:1000BE000FD0800E226E19D0C00E226E16D0940E66
:1000CE00226E13D0D40E226E10D0800E226E0DD062
:1000DE002250010AEEE02250020AEEE02250030AFC
:1000EE00EEE02250040AEEE0F0D72304006E225018
:1000FE00002600C022F01B8000C025F09BDF1B9065
:0A010E0024C025F097DF1B801200CB
:0C0118001B9022C025F091DF1B8012001C
:10012400400E256E8CDF1F6A1F50070811E30C0E6A
:100134001F24F66E040EF76E000EF722000EF86E02
:10014400000EF8220900F5CF22F0E4DF1F2AECD7D5
:10015400020E256E74DF1DC022F01EC023F0246A37
:04016400ACDF1200FA
:100168000FD0800E1D6E19D0C00E1D6E16D0940EC5
:100178001D6E13D0D40E1D6E10D0800E1D6E0DD0C6
:100188001D50010AEEE01D50020AEEE01D50030A60
:10019800EEE01D50040AEEE0F0D71E04006E1D507C
:1001A800002600C01DF000C025F047DF1B90216A23
:1001B80021501F24E96E000E2020EA6EEE520BE05B
:1001C80021501F24E96E000E2020EA6EEECF22F0A7
:0A01D8009FDF212AEDD71B801200E3
:1001E200959695949598959A959C959E83968394C9
:1001F200839E839C839A839815DF14DF13DF838A9F
:10020200838883861ADF83960DDF838616DF8396C3
:1002120009DF838612DF839605DF839883860DDFED
:10022200839600DF838609DF8396839A838E838693
:1002320004DF8396F7DE839E83888386FEDE8396C1
:1002420083988386FADE8396EDDE8386F6DE8396D6
:1002520083888386F2DE8396E5DE83988386EDDEED
:100262008396838E838C838A83888386E6DE839655
:06027200D9DE1B80120022
:100278000900F5CFE6FF0006FBE10106F9E11200EF
:10028800400E256EDADE1F6A1F50070811E3140EB0
:100298001F24F66E040EF76E000EF722000EF86E9D
:1002A800000EF8220900F5CF22F032DF1F2AECD722
:1002B800020E256EC2DE1DC022F01EC023F0246A85
:0402C800FADE120048
:1002CC00400E256EB8DE1F6A1F50070811E31C0E86
:1002DC001F24F66E040EF76E000EF722000EF86E59
:1002EC00000EF8220900F5CF22F010DF1F2AECD700
:1002FC00020E256EA0DE1DC022F01EC023F0246A63
:04030C00D8DE120025
:10031000400E256E96DE1F6A1F50070811E3240E5B
:100320001F24F66E040EF76E000EF722000EF86E14
:10033000000EF8220900F5CF22F0EEDE1F2AECD7DE
:10034000020E256E7EDE1DC022F01EC023F0246A40
:04035000B6DE120003
:10035400480E156E450E166E4C0E176E500E186E26
:10036400196A3DDF010E256E6ADE0C0E256E67DE0E
:10037400010E1D6E010E1E6E150E1F6E000E206EF8
:10038400F1DE020E226E1A50030F236E1CC024F0FD
:1003940094DE1A0E0C6EF80E0D6E0D2EFED70C2E7A
:1003A400FCD700001D6A1E6AB1DF1A0E0C6EF80E2F
:1003B4000D6E0D2EFED70C2EFCD700001D6A1E6A92
:1003C40083DF1A0E0C6EF80E0D6E0D2EFED70C2E5A
:1003D400FCD700001D6A1E6AA3DE1A0E0C6EF80E0E
:1003E4000D6E0D2EFED70C2EFCD700001D6A1E6A62
:1003F40049DF1A0E0C6EF80E0D6E0D2EFED70C2E64
:08040400FCD70000B5D7FFD7BB
:08040C000E0E041F04040A0A8D
:080414000E0E041F04040A0A85
:08041C000E0E041F04040A0A7D
:080424000E0E150E04040A116E
:020000040030CA
:0E0000000008181EFF8081FF0FC00FE00F40A8
:00000001FF
