:020000040000FA
:10000000806A896A9268836A956A81900F0EC16ED0
:10001000070EB46E81A047EF00F03AEF00F0F9262A
:100020003F0C300C5B0C4F0C660C6D0C7D0C070C00
:100030007F0C670C770C7C0C390C5E0C790CF92664
:100040003F0CB00CDB0CCF0CE60C6D0CFD0CFF0C68
:1000500004C0E8FF020DF3500FEC00F0836E0AEFCE
:1000600000F004C0E8FF020DF3501FEC00F0836EB7
:100070000AEF00F080CF04F080CF05F00542054282
:100080000542070E04160514042628EF00F080CF61
:1000900004F080CF05F0054205420542070E041624
:1000A0000514045ED8B857EF00F028EF00F0046C98
:0400B00031EF00F03C
:0200B40000004A
:00000001FF
