:1000000016EF00F00000000000EF00F0000000001C
:0A0010000000000000000000F3D71C
:10001C000900F5CFE6FF0006FBE10106F9E112004D
:10002C00156A166A0F0EC16E070EB46E956A156AC4
:10003C00166A800E006E800E1618005C02E11550D8
:10004C0017081CE38C0E1524F66E000E1620F76EA6
:10005C00000EF86E000E16BEFF0EF8220900F5CF4A
:10006C0083FFD00E0C6EC90E0D6E0D2EFED70C2E0E
:10007C00FCD700000000154A162ADBD7D8D7FFD7CB
:10008C00000673393F37F106FD0030675B8030FDA9
:08009C007F803F80303F3000FF
:020000040030CA
:0E0000000008181EFF8081FF0FC00FE00F40A8
:00000001FF
